{
    "contractName": "PositionAggregator",
    "abi": [
        {
            "inputs": [
                {
                    "internalType": "address",
                    "name": "_positionManager_",
                    "type": "address"
                },
                {
                    "internalType": "address",
                    "name": "_factory_",
                    "type": "address"
                }
            ],
            "stateMutability": "nonpayable",
            "type": "constructor"
        },
        {
            "inputs": [
                {
                    "internalType": "address",
                    "name": "contractAddress",
                    "type": "address"
                }
            ],
            "name": "getTokenMeta",
            "outputs": [
                {
                    "components": [
                        {
                            "internalType": "address",
                            "name": "contractAddress",
                            "type": "address"
                        },
                        {
                            "internalType": "string",
                            "name": "name",
                            "type": "string"
                        },
                        {
                            "internalType": "string",
                            "name": "symbol",
                            "type": "string"
                        },
                        {
                            "internalType": "uint8",
                            "name": "decimals",
                            "type": "uint8"
                        }
                    ],
                    "internalType": "struct PositionAggregator.TokenMetadata",
                    "name": "",
                    "type": "tuple"
                }
            ],
            "stateMutability": "view",
            "type": "function"
        },
        {
            "inputs": [
                {
                    "internalType": "address",
                    "name": "owner",
                    "type": "address"
                }
            ],
            "name": "positions",
            "outputs": [
                {
                    "components": [
                        {
                            "components": [
                                {
                                    "internalType": "address",
                                    "name": "contractAddress",
                                    "type": "address"
                                },
                                {
                                    "internalType": "string",
                                    "name": "name",
                                    "type": "string"
                                },
                                {
                                    "internalType": "string",
                                    "name": "symbol",
                                    "type": "string"
                                },
                                {
                                    "internalType": "uint8",
                                    "name": "decimals",
                                    "type": "uint8"
                                }
                            ],
                            "internalType": "struct PositionAggregator.TokenMetadata",
                            "name": "token0",
                            "type": "tuple"
                        },
                        {
                            "components": [
                                {
                                    "internalType": "address",
                                    "name": "contractAddress",
                                    "type": "address"
                                },
                                {
                                    "internalType": "string",
                                    "name": "name",
                                    "type": "string"
                                },
                                {
                                    "internalType": "string",
                                    "name": "symbol",
                                    "type": "string"
                                },
                                {
                                    "internalType": "uint8",
                                    "name": "decimals",
                                    "type": "uint8"
                                }
                            ],
                            "internalType": "struct PositionAggregator.TokenMetadata",
                            "name": "token1",
                            "type": "tuple"
                        },
                        {
                            "internalType": "uint256",
                            "name": "tokenId",
                            "type": "uint256"
                        },
                        {
                            "internalType": "uint24",
                            "name": "fee",
                            "type": "uint24"
                        },
                        {
                            "internalType": "uint80",
                            "name": "poolId",
                            "type": "uint80"
                        },
                        {
                            "internalType": "int24",
                            "name": "tickLower",
                            "type": "int24"
                        },
                        {
                            "internalType": "int24",
                            "name": "tickUpper",
                            "type": "int24"
                        },
                        {
                            "internalType": "uint128",
                            "name": "liquidity",
                            "type": "uint128"
                        },
                        {
                            "internalType": "uint256",
                            "name": "feeGrowthInside0LastX128",
                            "type": "uint256"
                        },
                        {
                            "internalType": "uint256",
                            "name": "feeGrowthInside1LastX128",
                            "type": "uint256"
                        },
                        {
                            "internalType": "uint128",
                            "name": "tokensOwed0",
                            "type": "uint128"
                        },
                        {
                            "internalType": "uint128",
                            "name": "tokensOwed1",
                            "type": "uint128"
                        },
                        {
                            "internalType": "uint160",
                            "name": "sqrtPriceX96",
                            "type": "uint160"
                        },
                        {
                            "internalType": "int24",
                            "name": "tick",
                            "type": "int24"
                        }
                    ],
                    "internalType": "struct PositionAggregator.Position[]",
                    "name": "",
                    "type": "tuple[]"
                }
            ],
            "stateMutability": "view",
            "type": "function"
        }
    ],
    "bytecode": "60c060405234801561001057600080fd5b50604051610ea5380380610ea583398101604081905261002f91610069565b6001600160601b0319606092831b8116608052911b1660a05261009b565b80516001600160a01b038116811461006457600080fd5b919050565b6000806040838503121561007b578182fd5b6100848361004d565b91506100926020840161004d565b90509250929050565b60805160601c60a05160601c610ddd6100c8600039806105ba525080609652806103f35250610ddd6000f3fe608060405234801561001057600080fd5b50600436106100365760003560e01c806355f575101461003b578063930157fe14610064575b600080fd5b61004e61004936600461089f565b610084565b60405161005b9190610be6565b60405180910390f35b61007761007236600461089f565b610242565b60405161005b9190610d43565b6040516370a0823160e01b81526060907f0000000000000000000000000000000000000000000000000000000000000000906000906001600160a01b038316906370a08231906100d8908790600401610bb9565b60206040518083038186803b1580156100f057600080fd5b505afa158015610104573d6000803e3d6000fd5b505050506040513d601f19601f8201168201806040525081019061012891906109e8565b905060008167ffffffffffffffff8111801561014357600080fd5b5060405190808252806020026020018201604052801561017d57816020015b61016a61076a565b8152602001906001900390816101625790505b50905060005b8281101561023757604051632f745c5960e01b81526000906001600160a01b03861690632f745c59906101bc908a908690600401610bcd565b60206040518083038186803b1580156101d457600080fd5b505afa1580156101e8573d6000803e3d6000fd5b505050506040513d601f19601f8201168201806040525081019061020c91906109e8565b9050610217816103da565b83838151811061022357fe5b602090810291909101015250600101610183565b50925050505b919050565b61024a6107ea565b60008290506040518060800160405280846001600160a01b03168152602001826001600160a01b03166306fdde036040518163ffffffff1660e01b815260040160006040518083038186803b1580156102a257600080fd5b505afa1580156102b6573d6000803e3d6000fd5b505050506040513d6000823e601f3d908101601f191682016040526102de91908101906108c2565b8152602001826001600160a01b03166395d89b416040518163ffffffff1660e01b815260040160006040518083038186803b15801561031c57600080fd5b505afa158015610330573d6000803e3d6000fd5b505050506040513d6000823e601f3d908101601f1916820160405261035891908101906108c2565b8152602001826001600160a01b031663313ce5676040518163ffffffff1660e01b815260040160206040518083038186803b15801561039657600080fd5b505afa1580156103aa573d6000803e3d6000fd5b505050506040513d601f19601f820116820180604052508101906103ce9190610a00565b60ff1690529392505050565b6103e261076a565b6000806000806000806000806000807f00000000000000000000000000000000000000000000000000000000000000006001600160a01b03166399fbab888d6040518263ffffffff1660e01b815260040161043d9190610d56565b6101806040518083038186803b15801561045657600080fd5b505afa15801561046a573d6000803e3d6000fd5b505050506040513d601f19601f8201168201806040525081019061048e9190610a1a565b9b509b509b509b509b509b509b509b509b509b50505060006104b18b8b8b610580565b90506000604051806101c001604052806104ca8e610242565b81526020016104d88d610242565b81526020018f81526020018b62ffffff168152602001600069ffffffffffffffffffff1681526020018a60020b81526020018960020b8152602001886001600160801b03168152602001878152602001868152602001856001600160801b03168152602001846001600160801b0316815260200183600001516001600160a01b03168152602001836020015160020b8152509050809c50505050505050505050505050919050565b61058861081e565b604080516060810182526001600160a01b0380871682528516602082015262ffffff84169181019190915260006105df7f000000000000000000000000000000000000000000000000000000000000000083610686565b9050600080826001600160a01b0316633850c7bd6040518163ffffffff1660e01b815260040160e06040518083038186803b15801561061d57600080fd5b505afa158015610631573d6000803e3d6000fd5b505050506040513d601f19601f820116820180604052508101906106559190610959565b5050604080518082019091526001600160a01b03909516855250505060020b60208201529450505050509392505050565b600081602001516001600160a01b031682600001516001600160a01b0316106106ae57600080fd5b50805160208083015160409384015184516001600160a01b0394851681850152939091168385015262ffffff166060808401919091528351808403820181526080840185528051908301206001600160f81b031960a085015294901b6bffffffffffffffffffffffff191660a183015260b58201939093527fe34f199b19b2b4f47f68442619d555527d244f78a3297ea89325f843f87b8b5460d5808301919091528251808303909101815260f5909101909152805191012090565b604051806101c0016040528061077e6107ea565b815260200161078b6107ea565b815260006020820181905260408201819052606082018190526080820181905260a0820181905260c0820181905260e0820181905261010082018190526101208201819052610140820181905261016082018190526101809091015290565b604051806080016040528060006001600160a01b031681526020016060815260200160608152602001600060ff1681525090565b604080518082019091526000808252602082015290565b805161023d81610d8f565b8051600281900b811461023d57600080fd5b80516001600160801b038116811461023d57600080fd5b805161ffff8116811461023d57600080fd5b805162ffffff8116811461023d57600080fd5b805160ff8116811461023d57600080fd5b6000602082840312156108b0578081fd5b81356108bb81610d8f565b9392505050565b6000602082840312156108d3578081fd5b815167ffffffffffffffff808211156108ea578283fd5b818401915084601f8301126108fd578283fd5b81518181111561090957fe5b604051601f8201601f19168101602001838111828210171561092757fe5b60405281815283820160200187101561093e578485fd5b61094f826020830160208701610d5f565b9695505050505050565b600080600080600080600060e0888a031215610973578283fd5b875161097e81610d8f565b965061098c60208901610840565b955061099a60408901610869565b94506109a860608901610869565b93506109b660808901610869565b92506109c460a0890161088e565b915060c088015180151581146109d8578182fd5b8091505092959891949750929550565b6000602082840312156109f9578081fd5b5051919050565b600060208284031215610a11578081fd5b6108bb8261088e565b6000806000806000806000806000806000806101808d8f031215610a3c578485fd5b8c516bffffffffffffffffffffffff81168114610a57578586fd5b9b50610a6560208e01610835565b9a50610a7360408e01610835565b9950610a8160608e01610835565b9850610a8f60808e0161087b565b9750610a9d60a08e01610840565b9650610aab60c08e01610840565b9550610ab960e08e01610852565b94506101008d015193506101208d01519250610ad86101408e01610852565b9150610ae76101608e01610852565b90509295989b509295989b509295989b565b60020b9052565b60008151808452610b18816020860160208601610d5f565b601f01601f19169290920160200192915050565b600060018060a01b038251168352602082015160806020850152610b536080850182610b00565b905060408301518482036040860152610b6c8282610b00565b91505060ff60608401511660608501528091505092915050565b6001600160801b03169052565b6001600160a01b03169052565b62ffffff169052565b69ffffffffffffffffffff169052565b6001600160a01b0391909116815260200190565b6001600160a01b03929092168252602082015260400190565b60208082528251828201819052600091906040908185019080840286018301878501865b83811015610d3557603f1989840301855281516101c08151818652610c3182870182610b2c565b915050888201518582038a870152610c498282610b2c565b9150508782015188860152606080830151610c6682880182610ba0565b5050608080830151610c7a82880182610ba9565b505060a080830151610c8e82880182610af9565b505060c080830151610ca282880182610af9565b505060e080830151610cb682880182610b86565b50506101008281015190860152610120808301519086015261014080830151610ce182880182610b86565b505061016080830151610cf682880182610b86565b505061018080830151610d0b82880182610b93565b50506101a09182015191610d2186820184610af9565b509588019593505090860190600101610c0a565b509098975050505050505050565b6000602082526108bb6020830184610b2c565b90815260200190565b60005b83811015610d7a578181015183820152602001610d62565b83811115610d89576000848401525b50505050565b6001600160a01b0381168114610da457600080fd5b5056fea26469706673582212206d771e1f59de9f1f68f3af13fa3387eab5810815db2335755eae255953ce475b64736f6c63430007060033",
    "sourcePath": "/Users/carter.cromer/Documents/v3-periphery/contracts/PositionAggregator.sol",
    "compiler": {
        "name": "solc",
        "version": "0.7.6+commit.7338295f"
    },
    "functionHashes": {
        "getTokenMeta(address)": "930157fe",
        "positions(address)": "55f57510"
    },
    "gasEstimates": {
        "creation": {
            "codeDepositCost": "709800",
            "executionCost": "infinite",
            "totalCost": "infinite"
        },
        "external": {
            "getTokenMeta(address)": "infinite",
            "positions(address)": "infinite"
        },
        "internal": {
            "getPoolData(address,address,uint24)": "infinite",
            "getPosition(uint256)": "infinite"
        }
    }
}